{
  "_format": "hh-sol-artifact-1",
  "contractName": "CropChainTokenizedInvestment",
  "sourceName": "contracts/CropChainTokenizedInvestment.sol",
  "abi": [
    {
      "anonymous": false,
      "inputs": [
        {
          "indexed": false,
          "internalType": "uint256",
          "name": "contractId",
          "type": "uint256"
        },
        {
          "indexed": false,
          "internalType": "uint256",
          "name": "tokenId",
          "type": "uint256"
        },
        {
          "indexed": false,
          "internalType": "uint256",
          "name": "farmerId",
          "type": "uint256"
        },
        {
          "indexed": false,
          "internalType": "uint256",
          "name": "investorId",
          "type": "uint256"
        },
        {
          "indexed": false,
          "internalType": "address",
          "name": "farmer",
          "type": "address"
        },
        {
          "indexed": false,
          "internalType": "string",
          "name": "cropName",
          "type": "string"
        },
        {
          "indexed": false,
          "internalType": "string",
          "name": "cropVariety",
          "type": "string"
        }
      ],
      "name": "InvestmentCreated",
      "type": "event"
    },
    {
      "anonymous": false,
      "inputs": [
        {
          "indexed": false,
          "internalType": "uint256",
          "name": "contractId",
          "type": "uint256"
        },
        {
          "indexed": false,
          "internalType": "address",
          "name": "investor",
          "type": "address"
        },
        {
          "indexed": false,
          "internalType": "uint256",
          "name": "quantity",
          "type": "uint256"
        }
      ],
      "name": "TokensPurchased",
      "type": "event"
    },
    {
      "inputs": [
        {
          "internalType": "uint256",
          "name": "contractId",
          "type": "uint256"
        },
        {
          "internalType": "uint256",
          "name": "tokenId",
          "type": "uint256"
        },
        {
          "internalType": "uint256",
          "name": "farmerId",
          "type": "uint256"
        },
        {
          "internalType": "uint256",
          "name": "investorId",
          "type": "uint256"
        },
        {
          "internalType": "address",
          "name": "farmerAddress",
          "type": "address"
        },
        {
          "internalType": "string",
          "name": "cropName",
          "type": "string"
        },
        {
          "internalType": "string",
          "name": "cropVariety",
          "type": "string"
        },
        {
          "internalType": "uint256",
          "name": "pricePerToken",
          "type": "uint256"
        },
        {
          "internalType": "uint256",
          "name": "tokenCount",
          "type": "uint256"
        },
        {
          "internalType": "uint256",
          "name": "expectedROI",
          "type": "uint256"
        },
        {
          "internalType": "uint256",
          "name": "fundingDeadline",
          "type": "uint256"
        },
        {
          "internalType": "uint256",
          "name": "expectedHarvestDate",
          "type": "uint256"
        },
        {
          "internalType": "enum CropChainTokenizedInvestment.DeliveryType",
          "name": "deliveryType",
          "type": "uint8"
        }
      ],
      "name": "createInvestment",
      "outputs": [],
      "stateMutability": "nonpayable",
      "type": "function"
    },
    {
      "inputs": [
        {
          "internalType": "uint256",
          "name": "",
          "type": "uint256"
        }
      ],
      "name": "investments",
      "outputs": [
        {
          "internalType": "uint256",
          "name": "contractId",
          "type": "uint256"
        },
        {
          "internalType": "uint256",
          "name": "tokenId",
          "type": "uint256"
        },
        {
          "internalType": "uint256",
          "name": "farmerId",
          "type": "uint256"
        },
        {
          "internalType": "uint256",
          "name": "investorId",
          "type": "uint256"
        },
        {
          "internalType": "address",
          "name": "farmerAddress",
          "type": "address"
        },
        {
          "internalType": "string",
          "name": "cropName",
          "type": "string"
        },
        {
          "internalType": "string",
          "name": "cropVariety",
          "type": "string"
        },
        {
          "internalType": "uint256",
          "name": "pricePerToken",
          "type": "uint256"
        },
        {
          "internalType": "uint256",
          "name": "tokenCount",
          "type": "uint256"
        },
        {
          "internalType": "uint256",
          "name": "tokensSold",
          "type": "uint256"
        },
        {
          "internalType": "uint256",
          "name": "expectedROI",
          "type": "uint256"
        },
        {
          "internalType": "uint256",
          "name": "fundingDeadline",
          "type": "uint256"
        },
        {
          "internalType": "uint256",
          "name": "expectedHarvestDate",
          "type": "uint256"
        },
        {
          "internalType": "enum CropChainTokenizedInvestment.DeliveryType",
          "name": "deliveryType",
          "type": "uint8"
        },
        {
          "internalType": "bool",
          "name": "isFunded",
          "type": "bool"
        },
        {
          "internalType": "uint256",
          "name": "creationTimestamp",
          "type": "uint256"
        }
      ],
      "stateMutability": "view",
      "type": "function"
    },
    {
      "inputs": [
        {
          "internalType": "uint256",
          "name": "",
          "type": "uint256"
        },
        {
          "internalType": "address",
          "name": "",
          "type": "address"
        }
      ],
      "name": "investorMap",
      "outputs": [
        {
          "internalType": "uint256",
          "name": "",
          "type": "uint256"
        }
      ],
      "stateMutability": "view",
      "type": "function"
    },
    {
      "inputs": [
        {
          "internalType": "uint256",
          "name": "contractId",
          "type": "uint256"
        },
        {
          "internalType": "uint256",
          "name": "quantity",
          "type": "uint256"
        }
      ],
      "name": "purchaseTokens",
      "outputs": [],
      "stateMutability": "payable",
      "type": "function"
    }
  ],
  "bytecode": "0x6080806040523461001657610a87908161001c8239f35b600080fdfe608080604052600436101561001357600080fd5b60003560e01c9081637d21edf91461084c575080637e4f1d83146103215780638bf0af3e146101885763fd345c8a1461004b57600080fd5b346101835760203660031901126101835760043560005260006020526040600020805490600181015491600282015490600383015491600160a01b60019003600485015416926005850161009e90610948565b936100ab60068701610948565b94600787015495600888015490600989015492600a8a015494600b8b015496600c8c015498600d8d01549c600e01549a6040519e8f91825260208201526040015260608d015260808c01526102008060a08d01528b0161010a916109ee565b8a810360c08c015261011b916109ee565b9660e08a015261010089015261012088015261014087015261016086015261018085015260ff8316600281101561016d57849360ff916101a086015260081c1615156101c08401526101e08301520390f35b634e487b7160e01b600052602160045260246000fd5b600080fd5b60403660031901126101835760043560243590806000526020916000835260406000208054156102dc57600b81015442116102a657600981018054906101ce8483610a2e565b916008840192835410610268579184939161020e606097967faf357506555a8fdf38c81d9a8fa2c6bca372e817f179cf596c9645902a927aea9995610a2e565b8155856000526001845260406000203360005284526040600020610233868254610a2e565b905554905414610252575b5060405192835233908301526040820152a1005b600d01805461ff0019166101001790558561023e565b60405162461bcd60e51b8152600481018890526016602482015275139bdd08195b9bdd59da081d1bdad95b9cc81b19599d60521b6044820152606490fd5b60405162461bcd60e51b815260048101859052600e60248201526d119d5b991a5b99c818db1bdcd95960921b6044820152606490fd5b60405162461bcd60e51b815260048101859052601960248201527f496e766573746d656e7420646f6573206e6f74206578697374000000000000006044820152606490fd5b34610183576101a0366003190112610183576084356001600160a01b03811681036101835760a43567ffffffffffffffff8111610183576103669036906004016108b7565b60c43567ffffffffffffffff8111610183576103869036906004016108b7565b91600261018435101561018357600435600052600060205260406000205461081657604051610200810181811067ffffffffffffffff82111761073057604052600435815260243560208201526044356040820152606435606082015260018060a01b03821660808201528260a08201528360c082015260e43560e0820152610104356101008201526000610120820152610124356101408201526101443561016082015261016435610180820152610184356101a082015260006101c0820152426101e08201526004356000526000602052604060002093815185556020820151600186015560408201516002860155606082015160038601556004850160018060a01b036080840151166bffffffffffffffffffffffff60a01b82541617905560a082015180519067ffffffffffffffff82116107305781906104ce600589015461090e565b601f81116107c3575b50602090601f831160011461075157600092610746575b50508160011b916000199060031b1c19161760058601555b60c082015180519067ffffffffffffffff821161073057819061052c600689015461090e565b601f81116106dd575b50602090601f831160011461066b57600092610660575b50508160011b916000199060031b1c19161760068601555b60e0820151600786015561010082015160088601556101208201516009860155610140820151600a860155610160820151600b860155610180820151600c8601556101a082015194600d8101600287101561016d576101e061065b94827feecbf04187c0867906f15a23e66177c16cf65d28103ff907c48f60f07da2500899600e945460ff61ff006101c0860151151560081b1692169061ffff191617179055015191015561064d604051948594600435865260243560208701526044356040870152606435606087015260018060a01b0316608086015260e060a086015260e08501906109ee565b9083820360c08501526109ee565b0390a1005b01519050878061054c565b9250600688016000526020600020906000935b601f19841685106106c2576001945083601f198116106106a9575b505050811b016006860155610564565b015160001960f88460031b161c19169055878080610699565b8181015183556020948501946001909301929091019061067e565b909150600688016000526020600020601f840160051c810160208510610729575b90849392915b601f830160051c8201811061071a575050610535565b60008155859450600101610704565b50806106fe565b634e487b7160e01b600052604160045260246000fd5b0151905087806104ee565b9250600588016000526020600020906000935b601f19841685106107a8576001945083601f1981161061078f575b505050811b016005860155610506565b015160001960f88460031b161c1916905587808061077f565b81810151835560209485019460019093019290910190610764565b909150600588016000526020600020601f840160051c81016020851061080f575b90849392915b601f830160051c820181106108005750506104d7565b600081558594506001016107ea565b50806107e4565b60405162461bcd60e51b815260206004820152600e60248201526d416c72656164792065786973747360901b6044820152606490fd5b34610183576040366003190112610183576024356001600160a01b0381169190829003610183576020916004356000526001835260406000209060005282526040600020548152f35b90601f8019910116810190811067ffffffffffffffff82111761073057604052565b81601f820112156101835780359067ffffffffffffffff821161073057604051926108ec601f8401601f191660200185610895565b8284526020838301011161018357816000926020809301838601378301015290565b90600182811c9216801561093e575b602083101461092857565b634e487b7160e01b600052602260045260246000fd5b91607f169161091d565b906040519182600082549261095c8461090e565b9081845260019485811690816000146109cb5750600114610988575b505061098692500383610895565b565b9093915060005260209081600020936000915b8183106109b357505061098693508201013880610978565b8554888401850152948501948794509183019161099b565b91505061098694506020925060ff191682840152151560051b8201013880610978565b919082519283825260005b848110610a1a575050826000602080949584010152601f8019910116010190565b6020818301810151848301820152016109f9565b91908201809211610a3b57565b634e487b7160e01b600052601160045260246000fdfea26469706673582212204caa1439bf9b604bd65eefd70b2a888daa54812974d87af0f6a1a44adf35377464736f6c63430008130033",
  "linkReferences": {},
  "deployedLinkReferences": {}
}